:400000000080002011000000751A0000751A000008B5044B1A6803F53F5302331A6001F049FD00BFFA46004010B5054C237833B9044B13B10448AFF300800123237010BD12
:400040003083FF1F000000008C3D0000084B10B51BB108490848AFF300800848036803B910BD074B002BFBD0BDE81040184700BF000000003483FF1F8C3D0000C880FF1F9C
:400080000000000038B5134B988908B319461C89631C9BB2104AA2FB03525209642505FB12330B810138888101EB44018B7B13B1012B04D006E0002002F02AFB02E00120EB
:4000C00002F026FB034B03EB4404E07B02F0D4FA38BD00BF4C83FF1F1F85EB5130B5ABB01B4B9B89632B17D92AAD032305F8A83D184B1868CDF80100174C0FCCCDF81100E9
:40010000CDF81510CDF81920CDF81D30284600F0C1FB6FF0070019E00D4D6C89621C92B205EB4404A073E1730C49A1FB02014909642000FB11226A8101339BB2AB81012BE0
:4001400003D1FFF79FFF002000E000202BB030BD4C83FF1FE8420000EC4200001F85EB512DE9F04180460E4617461D462A210020FFF7B4FF00210120FFF7B0FF194C94F8FD
:40018000D6104144C9B20120FFF7A8FF00210120FFF7A4FF94F8D6103944C9B20120FFF79DFF2B210020FFF799FF00210120FFF795FF94F8D7103144C9B20120FFF78EFFD6
:4001C00000210120FFF78AFF94F8D7102944C9B20120FFF783FF2C210020FFF77FFFBDE8F08100BF4C83FF1F10B5044636210020FFF774FF04F003002A4B83F8D8000328CE
:400200004ED8DFE800F00215283BC2210120FFF765FF244BA022A3F8DA208022DA8093F8DC2083F8D62093F8DD2083F8D72010BDA2210120FFF752FF1A4BA022DA8080223A
:40024000A3F8DA2093F8DC2083F8D72093F8DD2083F8D62010BD08210120FFF73FFF114BA022A3F8DA208022DA8093F8DC2083F8D62093F8DD2083F8D72010BD622101209A
:40028000FFF72CFF074BA022DA808022A3F8DA2093F8DC2083F8D72093F8DD2083F8D62010BD00BF4C83FF1F024BA3F8DE00A3F8E01070474C83FF1F024BA3F8E200A3F8B3
:4002C000E41070474C83FF1F08B90120FFE7014B187170474C83FF1F2DE9F0411F46BDF818501F4BB3F90630834236DD90461C4AB2F8DA20914230DA00EB0804013C9C4269
:4003000002DB1B1A0FFA83F87B18013B9A4201DC571A3FB2C0B2C9B2CB19013B00EB0802013ADBB2D2B2FFF71BFF2E0AEDB2012002F0EEF90FE031460220FFF7CFFE294654
:400340000220FFF7CBFE013C24B200E04446002CF1DC013F3FB2002FF8DCBDE8F08100BF4C83FF1F00B583B0064AB2F9DA30B2F90620009000210846FFF7AEFF03B05DF8C8
:4003800004FB00BF4C83FF1FF8B5364B8022DA80A022A3F8DA20002483F8D840A3F8DE40A3F8E04001251D714FF6FF72A3F8E220A3F8E4405D711C6083F8DD4083F8DC40A7
:4003C00083F8D64083F8D7401C815C819C8102F091F9284602F0A8F9642002F02FFA204602F0A2F9642002F029FA284602F09CF9142002F023FA29462046FFF76FFE3220D9
:4004000002F01CFA11212046FFF768FE782002F015FA0F22144D14E02C4614F8021B0020FFF75CFE6A78254606E06E1C29780120FFF754FE22463546531EDCB2002AF4D1FE
:400440003A46531EDFB2002AE6D10220FFF7CCFE0020FFF787FF02F0D3F9642002F08AF9F8BD00BF4C83FF1F913D0000002821DB114BB3F9063098421CDA00291ADB0E4B0C
:40048000B3F8DA30994215DA10B51446C0B2C9B24B1C421CDBB2D2B2FFF762FE012002F037F9210A0220FFF719FEE1B20220FFF715FE10BD704700BF4C83FF1FF8B51E46E9
:4004C000164BB3F90630834226DD1546134BB3F8DA30994220DA0A44013A934201DC5D1A2DB2C0B2C9B24B19013BDBB20246FFF737FE370AF6B2012002F00AF908E039462A
:400500000220FFF7EBFD31460220FFF7E7FD25466A1E14B2002DF2D1F8BD00BF4C83FF1F2DE9F04F8BB00290039115460493BDF850709DF854A07F4B1A68002A40F09080E2
:40054000B3F906300146834240F3F180794BB3F8DA300398984280F2EA800AEB4A0253000B44012B00F1E38000EBCA03012B00F1DE804FF00008894683460595049E4EE040
:40058000059B03EB830343446B4A134493F8585000243EE015F0010F1BD0BAF1010F09D104EB0B0108EB0900324609B200B2FFF75DFF2BE01FFA8AF00FFA8AF204FB00B189
:4005C00008FB00900096134609B200B2FFF784FE1CE0BE421AD0BAF1010F09D104EB0B0108EB09003A4609B200B2FFF73FFF0DE01FFA8AF00FFA8AF204FB00B108FB0090B9
:400600000097134609B200B2FFF766FE013464B26D08072CBEDD08F101084FFA88F8B8F1040FADDD049BBB4200F08180BAF1010F08D1029805303B460822039900B2FFF785
:400640003DFF74E01FFA8AF303EB8300029A10440097DB005246039900B2FFF73DFE66E0137AEB1ADBB2506800EBC301D2F800B030F8337091F80280CB78079391F90530B2
:40068000089391F906200992BAF1010F04D91BB2059313B2069302E000230693059300231C46994640E05E1CF6B213F0070F03D17B1C1BF807409FB214F0800F27D0BAF1B9
:4006C000010F0DD1099B039A99184944089B029A98182844049A09B200B2FFF7C7FE16E0059B58191FFA8AF3069A02EB09010FFA8AFE039A01FB0321029A00FB0320049B91
:4007000000937246734609B200B2FFF7E5FD6400E4B20135EDB2334600E000254545C2D309F101095FFA89F9079A9145F5D30BB0BDE8F08F4C83FF1F903D000070B582B0F6
:400740004E4B1B68002B43D10A280BD14B4B0022A3F8DE201979B3F8E02002EBC102A3F8E02088E00D2800F08680444B5B79ABB1424A117901EB41046300B2F8DE4023440C
:40078000B2F90620934209DD3C4B0022A3F8DE20B3F8E02002EBC101A3F8E010374CB4F8E230B4F9E010B4F9DE5022790192B4F8E420009202462846FFF7B2FE237903EB77
:4007C00043035A00B4F8DE301344A4F8DE3052E00A280CD1294A0021A2F8DE10997A1079B2F8E03000FB0133A2F8E03043E00D2841D01A7A90423ED3597A88423BD8821AE6
:400800005C6804EBC204A278E1785AB351B394F905501A494979A9B118490E792A44B1F8DE5002FB0652B1F906108A420ADD134A0021A2F8DE109B7AB2F8E01006FB031696
:40084000A2F8E0600D4AB2F8E230B2F9E010B2F9DE5016790196B2F8E420009202462846FFF75EFE2179054B1879B3F8DE2000FB0122A3F8DE2002B070BD00BF4C83FF1F43
:4008800010B5044602E00134FFF758FF20780028F9D110BD10B50446013002F047F8064802F044F804F1110002F040F8034802F03DF8002010BD00BF10430000FC420000A2
:4008C00008B5002001F042FB08BD00BF684620F007018D4619B572B6EFF311841E4B1B68DBB20F2B10D9103B23F0030202F1604202F564421168DB0003F01803E0229A40F4
:400900000A4022FA03F306E00F2B03D1134B1B681B0E00E0002383F31188114A136801331360012B01D102F06FF862B6FFF7C8FF72B684F3118801F003FD094A1368013B6F
:4009400013601BB902F069F802F02DF862B6BDE819408546704700BF04ED00E020ED00E0A884FF1F08B5022001F0FEF8042001F0FBF808BD08B562B645F6BF52054B1A60E9
:40098000054A136843F002031360002001F0C6FDFBE700BF14E000E010E000E030B5A1B0FFF7F2FC01F0A8FF4FF6FF710020FFF783FC6C46134D0FCD0FC495E8030084E800
:4009C00003006846FFF75CFF00214FF6FF70FFF773FC0D48FFF754FF01F004FE0B4A136843F00503136001221146002001F030F9032001F0B9F8012001F0B6F801F0D4FDB1
:400A000021B030BD144300002C43000010E000E000BFFDE708B501F0A9FF012803D001F0ADFF012803D10221032001F035FB08BD684620F007018D4619B572B6EFF31184A1
:400A40001E4B1B68DBB20F2B10D9103B23F0030202F1604202F564421168DB0003F01803E0229A400A4022FA03F306E00F2B03D1134B1B681B0E00E0002383F31188114A40
:400A8000136801331360012B01D101F0BDFF62B6FFF7C0FF72B684F3118801F051FC094A1368013B13601BB901F0B7FF01F07BFF62B6BDE819408546704700BF04ED00E09B
:400AC00020ED00E0A884FF1F70B5B4B0694BDC6C2368002B44D04422664912A802F01EFD236812A8984720BB44252A4612A901A802F014FD5F4CE66C2A4601A9204602F0E6
:400B00000DFD0023A364022384F844307569B36833B33DB924E0996855F8240001F0BCFA013400E00024534BDB6C1A699442F2D316E0504B032283F84420DB6CDD69DB68D9
:400B400073B13DB90CE0D96855F8240001F0A4FA013400E00024474BDB6C9A699442F2D34422444923A802F0D9FC434B1B88FA2B06D104238DF88E3000223F4B1A8002E03A
:400B800032333D4A13803C4B5B884EF66022934206D105238DF88E300022374B5A8002E03233354A53809DF88C20012A02D10121314B99809DF88D30012B05D12E49012076
:400BC000C88008896430088152B92B4A9288012A06D101238DF88E300022274B9A8022E083B9254AD288012A0CD1234A1289B2F57A7F07D202238DF88E301F4B0022DA8070
:400C00001A8110E07BB91C4BDB88012B0BD11A4B1B89B3F57A7F06D903238DF88E30164B0022DA801A8144252A4623A912A802F075FC104CE66C2A4612A9204602F06EFC5C
:400C40000023A364022384F844307569B36873B13DB90CE0996855F8240001F01DFA013400E00024034BDB6C1A699442F2D334B070BD00BFEC80FF1F3284FF1F00B593B0AA
:400C80004422104901A802F049FC9DF80600012802D100F045FC12E0022802D100F040FC0DE0032802D100F03BFC08E0052802D100F036FC03E0042801D100F031FC13B0D5
:400CC0005DF804FBEC80FF1FF0B593B00CAC06AD214E0FCE0FC596E8030085E8030006AB93E8070084E8070009AB93E8070012AB03E907006D460FCC0FC594E8030085E8D8
:400D00000300164E376A34466D460FCD0FC495E8030084E803000023F361022333767D69BB6873B13DB90CE0996855F8240001F0B3F9013400E00024084B1B6A1A69944213
:400D4000F2D3064B1B7E022B03D10448036A5B68984713B0F0BD00BF3C81FF1F6081FF1F00B583B000230193032001F015FA01A9032001F071F9019801F040F9019A0221F4
:400D8000014800F08BFCEFE74443000010B5084C22680221074800F069FC23680133236013F5807F01D90022226001F0FDFB10BD3C84FF1F5843000008B5012000F008FDE3
:400DC00001F0F2FB08BD00BFF0B58DB0204F06AD3C460FCC0FC594E8030085E803004FF0000EADF81CE04FF6FF73ADF81E30ADF828E0ADF82A306D4606AE0FCE0FC596E893
:400E0000030085E80300D7F820C03E466D460FCD0FC695E8030084E80300C7F81CE002233B76DCF81450DCF8083073B13DB90CE0996855F8240001F02FF9013400E000241A
:400E4000034B1B6A1A699442F2D30DB0F0BD00BF3C81FF1FF0B59FB0442229490DA802F05DFB07AC274D0FCD0FC495E8030084E803009DF844305BB94FF6FF73ADF8203024
:400E80000022ADF82220ADF82C20ADF82E300CE0012B0AD10023ADF820304FF6FF72ADF82220ADF82C20ADF82E3001AC07AD0FCD0FC495E8030084E80300124E376A34461F
:400EC00001AD0FCD0FC495E8030084E803000023F361022333767D69BB6873B13DB90CE0996855F8240001F0D7F8013400E00024044B1B6A1A699442F2D31FB0F0BD00BFBA
:400F0000EC80FF1F3C81FF1FF0B58DB0184F06AD3C460FCC0FC594E8030085E803006D4606AE0FCE0FC596E8030085E80300D7F820E03E466D460FCD0FC60023FB610223CC
:400F40003B76DEF81450DEF8083073B13DB90CE0996855F8240001F09FF8013400E00024034B1B6A1A699442F2D30DB0F0BD00BF3C81FF1FF0B58DB006AC2C4D0FCD0FC48E
:400F800095E8030084E803009DF82E300133DBB28DF82E30264AA2FB03125209C2EB021291005B1A13F0FF0F16D19DF822300133DBB28DF822301F4AA2FB0312120902EBCD
:400FC0004202D1005B1A13F0FF0F02D100238DF8223000238DF82E306C4606AD0FCD0FC495E8030084E80300104E376A34466D460FCD0FC495E8030084E803000023F3613F
:40100000022333767D69BB6873B13DB90CE0996855F8240001F040F8013400E00024034B1B6A1A699442F2D30DB0F0BD3C81FF1F89888888ABAAAAAA08B5FFF79BFF08BDED
:40104000F0B58DB006AC234D0FCD0FC495E8030084E803009DF822300133DBB28DF822301D4AA2FB0312120902EB4202D1005B1A13F0FF0F02D100238DF82230FFF744FF8D
:401080006C4606AD0FCD0FC495E8030084E80300104E376A34466D460FCD0FC495E8030084E803000023F361022333767D69BB6873B13DB90CE0996855F8240000F0ECFFC2
:4010C000013400E00024034B1B6A1A699442F2D30DB0F0BD3C81FF1FABAAAAAAF0B58DB006AC244D0FCD0FC495E8030084E803009DF82E300133DBB28DF82E301E4AA2FB99
:4011000003125209C2EB021291005B1A13F0FF0F04D100238DF82E30FFF792FFFFF7F4FE6C4606AD0FCD0FC495E8030084E80300104E376A34466D460FCD0FC495E80300BF
:4011400084E803000023F361022333767D69BB6873B13DB90CE0996855F8240000F09CFF013400E00024034B1B6A1A699442F2D30DB0F0BD3C81FF1F8988888800B593B027
:401180004422084901A802F0C9F99DF8143013B9FFF756FF03E0012B01D1FFF79FFF13B05DF804FBEC80FF1F2DE9F043E7B080460E46564C44252A46214655A802F0AEF9A3
:4011C0004FF000098DF856918DF864612A4655A9684602F0A3F9E76C2A466946204602F09DF9C4F84890022384F844307D69BB6873B13DB90CE0996855F8240000F04CFF82
:40120000013400E00024414BDB6C1A699442F2D3002E3CD19DF868313D4EF3814146304600F09CF9394C44252A46214622A802F075F92A4622A955A802F070F9F3898DF817
:4012400068312A4655A90DEB050002F067F9E66C2A460DEB0501204602F060F90023A364022384F844307569B368002B4AD03DB948E0996855F8240000F00EFF013400E088
:401280000024224BDB6C1A699442F2D33AE0012E38D19DF880311E4EF3814146304600F05DF91A4C44252A46214644A802F036F92A4644A955A802F031F9F3898DF88031A2
:4012C0002A4655A933A802F029F9E66C2A4633A9204602F023F90023A364022384F844307569B36873B13DB90CE0996855F8240000F0D2FE013400E00024044BDB6C1A69BD
:401300009442F2D367B0BDE8F08300BFEC80FF1FCC80FF1F70B5A2B0194C44252A4621460DEB050002F0FAF803238DF858302A460DEB0501684602F0F1F8E66C2A46694698
:40134000204602F0EBF80023A364022384F844307569B36873B13DB90CE0996855F8240000F09AFE013400E00024054BDB6C1A699442F2D300210120FFF716FF22B070BDC0
:40138000EC80FF1F08B500210420FFF70DFF08BD70B5A2B0194C44252A4621460DEB050002F0BCF804238DF858302A460DEB0501684602F0B3F8E66C2A466946204602F065
:4013C000ADF80023A364022384F844307569B36873B13DB90CE0996855F8240000F05CFE013400E00024054BDB6C1A699442F2D300210320FFF7D8FE22B070BDEC80FF1FC7
:4014000008B500210220FFF7CFFE08BD70B5A2B01D4C44252A4621460DEB050002F07EF804238DF8583003238DF870302A460DEB0501684602F072F8E66C2A4669462046D1
:4014400002F06CF80023A364022384F844307569B36873B13DB90CE0996855F8240000F01BFE013400E00024074BDB6C1A699442F2D300210120FFF797FE01210846FFF73A
:4014800093FE22B070BD00BFEC80FF1F08B501210420FFF789FE08BD70B5A2B0194C44252A4621460DEB050002F038F804238DF870302A460DEB0501684602F02FF8E66C00
:4014C0002A466946204602F029F80023A364022384F844307569B36873B13DB90CE0996855F8240000F0D8FD013400E00024054BDB6C1A699442F2D301210320FFF754FE64
:4015000022B070BDEC80FF1F08B501210220FFF74BFE08BD08B501210846FFF745FE08BD08B50146014800F019F808BDDC80FF1F10B400230BE0046803EB43018A00A15A70
:40154000C289914201D118B206E001339BB282889342F0D34FF0FF3010BC70472DE9F04781468846B0F80EA0FFF7E2FFB0F1FF3F6FD0D9F8001000EB400293001A460B443A
:401580005D681DB113460B441E8900E00026002D63D0002E65D0002456E0274604EB44029300EB5A43454DD104EB440293002B445B6813B19847012844D17A00D1198B003C
:4015C00019462B449E680D446D88D9F8083093B916E0D9F8081004EB44029300CB5A9A4506D104EB4402930019448B6803B198470134A4B200E00024B9F80C309C42E8D33A
:4016000006B1B047D9F8083093B916E0D9F8081004EB44029300CB5A9D4206D104EB4402930019444B6803B198470134A4B200E00024B9F80C309C42E8D3A9F80E50002086
:40164000BDE8F0870134A4B2A642A6D80020BDE8F0876FF01300BDE8F0876FF01600BDE8F0876FF01600BDE8F08700BFF8B506460F46154600240DE006EBC4039A88B5FB6E
:40168000F2F302FB13531BB956F83430002098470134A4B2BC42EFD30020F8BDF8B505460E461746002409E005EBC4035868384202D055F8343098470134A4B2B442F3D3ED
:4016C0000020F8BD2DE9F04FA1B0044690F80A8090F816A0B0F804B0B0F806908578077A467A31463846FEF7DFFD59464846FEF7E3FD2846FEF7E8FD42462B49684601F052
:4017000021FF6846FFF7BCF8680001F043FC0022264B01F0A5FC80468946384601F03AFC42464B4601F0EAFA01F0ACFE1FFA80F81F4B1B7823B901221D4B1A703A2703E0EE
:4017400000221B4B1A70202700214FF6FF70FEF7B3FD2846FEF7B8FD31460FFA88F0FEF7A3FD3A461349684601F0ECFE6846FFF787F8278A668AA57B617D207DFEF794FDA7
:4017800039463046FEF798FD2846FEF79DFD52460549684601F0D6FE6846FFF771F8002021B0BDE8F08F00BFB0440000000016404084FF1FB844000038B5044600258570FA
:4017C00001F0D4F8207001F0D9F86070284638BD0D4B9B6C034413F1011F01D80A4A9364094BDB6E034413F1011F01D8064AD366054BD3F89030184410F1011F02D8024BD0
:40180000C3F89000704700BFEC80FF1FFEE700BFF0B40022174611E050F82760F3B226F0FF0608E001EB420511F812406D78A5550132013BDBB2002BF4D101371C2FEBD98E
:40184000F0BC7047064B1B78DBB203F00701054A11701B09013213704422034B1A707047CF0100496E5800407658004008B50A46002101F05EFE08BD38B50024284B1C806D
:40188000582202331A70192502331D801823254A137041F2BF2102321180023213700222214B1A7008224FF040231A70032103F5007319701D4B1B78DBB21D490B701D4BCA
:4018C0001A8041F25122023B1A800CE01A4B1B7803F0010343EA440404F003044FF4F07001F01AF9013D0DB1032CEFD115B90320FFF78CFF114B4FF480721A8007221A70A4
:4019000000220F490A704820023108701A700222033B1A700B4A137843F00703137038BD80400040864000400043004008010049A1460040224200402542004004400040C4
:4019400006400040A243004008B501F0E7FD08BD38B572B6364A137843F00403137000240CE0344D630019194A0011462A44084691882858FFF77AFF0134E4B20A2CF0D933
:4019800000240CE02B48A20011194B000344B3F84C20996C586CFFF7D7FF0134E4B2022CF0D925494FF09040FFF732FF234A137843F0020313701032137843F002031370F9
:4019C0001F4C237843F040032370A2F58632513A137843F01003137008221A491A48FFF7B3FF0A2219491A48FFF7AEFF082219491948FFF7A9FF082218491948FFF7A4FF70
:401A0000184A137843F008031370174D61232B70FFF732FF81232B700122144B1A70FFF711FF0E2221461248FFF78EFF38BD00BFE846004050450000740000480350014082
:401A4000A043004074050048025100407C050048C051004088050048125100409005004832510040224300400048004004000840B043004008B501F025FD03680C2B00D1CE
:401A8000FEE7FEE708B5094B1A681044084BC31A802B02DC054B186005E001F013FD0C2303604FF0FF32104608BD00BF8481FF1FF0A6FF1F08B5104E104D16E029686B6889
:401AC000AC68002204E051F8040B43F8040B0432A242F8D1E868002203E0002143F8041B04328242F9D11035013E002EE6D101F0EFFCFEF73FFFFEE7010000004C480000C1
:401B000008B5104A104B1A60104A136843F40073136000230AE0032B03D80D4A52F8231000E00C490C4A42F8231001332F2BF2D90A4B1A780A4B1A70074A0A4B1A60FFF7B0
:401B400007FF08BD0004FA050CED00E014ED00E000000000751A00000080FF1FBC760040C080FF1F08ED00E038B5EFF3108572B604284ED82D4B53F82030002B4BD02B4A5F
:401B8000013B42F820302A4B53F82030032B07D10222274B43F820200022264B43F8202000F03EFC244B1B68002B36D1234B1C6800F014FCB0F1FF3F31D0214B53F8202013
:401BC000204B1B689A422CD9B4F1FF3F03D00221174A42F824101C4A52F820201343194A13600022124B43F8202000F0B3FB174B53F820304BB10024144B43F8204040F073
:401C0000004000F013FF20460CE000F00FFF002008E0032006E0042004E0002002E0002000E0002085F3108838BD00BFD081FF1F7C82FF1F6C84FF1FA884FF1F6482FF1F2C
:401C4000384700008884FF1F1C4700004484FF1FF8B5EFF3108472B628BB00EB4005AB00184DEB5803EB4306B500174E75598D421BD34AB103EB43039E00134B1E44B3683D
:401C80009A4214D3954214D3A9B103010F4DEB589BB90301EE180127EF507260013900F087F800200AE0032008E0082006E0082004E0082002E0082000E0072084F31088EF
:401CC000F8BD00BFD4460000E8460000D884FF1F18B108B5C368984708BD704708B508B1406800E00020042816D80C4B53F8203093B10A4A013B42F82030094B53F820302B
:401D0000032B07D10222064B43F820200022054B43F8202000F084FB08BD00BFD081FF1F7C82FF1F6C84FF1F18B1034640689B6801E00023184604281DD80F4A52F8202011
:401D4000CAB10E4A52F82010032914D010B50C4C54F820201A4344F820200A4A52F82020134207D0012905D10222044B43F8202000F056FB10BD7047F44600007C82FF1F71
:401D80006C84FF1F5884FF1F80B108B50378012B06D013B1032B06D008BDFFF79FFF08BDFFF7C2FF08BDFFF793FF08BD704700BF30B400EB40029300214AD258214B03EBF8
:401DC000C2035C68B4F1FF3F04D11E4B03EBC20250602DE01C4B03EB04139B6899420AD2184D05EBC2025060174A02EB04125B1A93601DE01C46144B03EB04139A68891AA7
:401E0000DB68B3F1FF3F05D00F4A02EB031292689142EFD2B3F1FF3F05D00B4A02EB031295686D1A9560084A02EB0414E0601C46054B03EB00108160C46030BC704700BF8A
:401E4000D44600008C81FF1FD884FF1F38B5394A02EBC0035C6852F83030013342F8303000EB40018A0034498A58934203D90022304B43F83020B4F1FF3F59D02F4B03EBE5
:401E800004139B68002B4ED1214600E019462B4B03EB0113DB68B3F1FF3F05D0274A02EB03129268002AF1D0244A02EB01114FF0FF32CA601F4A02EBC0004360B3F1FF3FAC
:401EC00007D01E4A02EB03139A68013A9A6000E02C4604EB44029300194A13441B7A7BB904EB44029300164A13445A68154B53F8223003EB83039A0013481044FFF744FF98
:401F00000E4B03EB0413DD68596821B101392046FFF74EFF03E024010022084B1A51B5F1FF3FD5D138BD054A02EB0414013BA36038BD00BF8C81FF1FE8460000D884FF1F07
:401F4000D4460000E4460000C046000038B5EFF3108572B6002838D1FFF778FF204B1B68002B34D11F4B1C6800F038FAB0F1FF3F2FD01D4B53F820201C4B1B689A422AD925
:401F8000B4F1FF3F03D00221194A42F82410194A52F820201343154A13600022144B43F8202000F0D7F9144B53F820304BB10024114B43F8204040F0004000F037FD20469B
:401FC0000AE000F033FD002006E0032004E0002002E0002000E0002085F3108838BD00BFA884FF1F6482FF1F384700008884FF1F7C82FF1F1C4700004484FF1FEFF3108313
:4020000072B6114A1168114A126882B9B1F1FF3F0FD00F4A52F821206AB110B40D4C54F8212022EA000044F82100002007E0022002E0022000E0012083F31088704783F35A
:40204000108810BC704700BF6482FF1FA884FF1FF44600006C84FF1F04280FD80B4B53F820306BB10A4B53F82030032B0AD059B1084B53F820300B600020704703207047C4
:4020800001207047072070470E207047F44600007C82FF1F6C84FF1F38B5EFF3108472B6042853D8324B53F82030002B50D0314B53F82030032B4DD02F4D55F820200A4324
:4020C00045F820202D4A52F82020114244D0012B44D10222274B43F8202000F0A1F9284B1B68002B3CD1274B1D6800F077F9B0F1FF3F37D0244B53F82020244B1B689A42EC
:4021000032D9B5F1FF3F03D002211A4A42F825101F4A52F8202013431C4A13600022154B43F8202000F016F91A4B53F820304BB10025184B43F8205040F0004000F076FCC8
:40214000284612E000F072FC00200EE003200CE001200AE0072008E0002006E0002004E0002002E0002000E0002084F3108838BDF44600007C82FF1F6C84FF1F5884FF1FDC
:40218000A884FF1F6482FF1F384700008884FF1F1C4700004484FF1F38B5EFF3108472B6364B1D68364B1B68002B5DD1B5F1FF3F5CD0344B53F82530002B59D0324B53F8A6
:4021C0002530034256D1314B43F825000122304B43F825202F4B53F825002F490B6823EA00030B602D4B43F825202D4B53F82520224B1A6000F0F2F8B0F1FF3F06D0294BEA
:4022000053F82020244B1B689A420DD81B4B1868B0F1FF3F03D000221D4B43F8202040F0004000F003FC1AE00021194A42F82010184A52F820201343174A136000F08AF8F4
:40224000164B53F8203043B10022144B43F8202040F0004000F0EAFB01E000F0E7FB00200A4B43F8250006E0022004E0022002E0012000E0002084F3108838BD6482FF1F8C
:40228000A884FF1FF44600006C84FF1F5884FF1F7C82FF1F1C4700008884FF1F4484FF1F6882FF1F3847000008B500F053F8084B53F8203043B10022054B43F8202040F085
:4022C0000040044B186008BD024B186008BD00BF4484FF1FAC84FF1F10B500F07FF8124B1B68B0F1FF3F1AD0104A52F82010104A1268914213D9B3F1FF3F03D002240D4928
:4023000041F8234000210B4B43F820100A4B53F820301A43064B1A60FFF7C6FF10BD43F00043064A136010BD6482FF1F384700008884FF1F7C82FF1F1C470000AC84FF1FFF
:40234000034B1B6813B10022014B1A60704700BF9C84FF1FF0B4184B19880B0A174AD356B3F1FF3F01D1535601E008335BB2144D55F82320134850F82200134E56F8224098
:4023800045F82340114D2F6846F822702A60B4F1FF3F09D10E4A42F82340012202FA03F321EA0301044B19800A4B19680A4A42F820101860F0BC70478484FF1FB4450000E2
:4023C0002482FF1FB084FF1FA881FF1F8084FF1FE481FF1F6482FF1F6882FF1F0C4B1A88130A0C49CB56B3F1FF3F01D18B5601E008335BB2B3F1FF3F06D0074A52F82320EF
:40240000064B53F8220070474FF0FF30704700BF8484FF1FB44500002482FF1FB084FF1F30B4144B53F82020134C2368134951F823502560124C44F823004FF0FF3441F851
:402440002340104951F82210A1420AD10E4951F820400E480188214301800D4941F8223002E0064840F82130064941F8223030BC704700BFBC81FF1F8084FF1FA881FF1F09
:40248000B084FF1FE481FF1F384700008484FF1F2482FF1F10B150F8210070474FF0FF30704700BF0122014B1A60FEE7A484FF1F70B50546124B53F8306000241CE0104BE2
:4024C00003EBC50321465868FFF7E4FF0D4A52F82030013B42F820300B4B53F82030032B07D10222084B43F820200022074B43F82020FFF795FF0134B442E0D370BD00BF43
:40250000B4460000D081FF1F7C82FF1F6C84FF1F18B908B5FFF7CCFF08BD7047194B1A4ADA621A4A9A631A4ADA63EFF3108272B6184B1B6813BB10B5044600F053F8164B3C
:402540001C600122134B1A602046FFF7E1FFFFF745FFB0F1FF3F0ED0104B53F82030104A11680B43136000220E4B43F82020FFF7F1FE00F05BFA62B6FFF794FF82F3108859
:40258000072070470080FF1FED290000B1290000CD080000A484FF1FE884FF1F1C4700008884FF1F7C82FF1F08B5EFF3108272B6094B1968094B1B6833B94FF0FF30084BAF
:4025C00043F82100002000E0022010B9084600F086FA82F3108808BD6482FF1FA884FF1F9481FF1F38B50D4B1D68EFF3108472B600F0CCF90A4A136843F07F431360094BDB
:402600002B640721002000F02FF9074A136843F00103136084F3108838BD00BF08ED00E020ED00E0310A000000E100E008B500F07BFA0A4A137843F020031370A2F5807251
:40264000137843F010031370013A137843F01003137000F06DFA00F0E1F808BD99650040014B1878704700BF69640040014B1878704700BF68640040034B1B7813F0040FA0
:40268000FAD0024B18707047696400404965004008B501E00A4B1B780A4B1B7813F0200FF8D100F041FA084B1A7842F001021A701A7802F0FE021A7000F03AFA08BD00BFDB
:4026C00059650040686400409965004008B50F22064B1A70FFF7DCFFFFF7C2FFFFF7C6FF0023034A1370013A137008BD896500408964004008B5054B1B7823B9FFF7E6FF5E
:402700000122024B1A70FFF791FF08BD9084FF1F044A137803F0F703C00000F00800184310707047C0510040044A137803F0EF03000100F0100018431070704730510040AF
:40274000084A137843F0010313701032137843F00103137002F64D32137843F001031370704700BFA3430040014B1880704700BF044F0040014B1880704700BF064F004007
:40278000014B1870704700BF034F004008B5194A137843F0020313700232137803F08F0343F010031370144B1A7802F0CF021A701A7842F030021A701A7802F0F0021A700C
:4027C0001A7842F00F021A706420FFF7CDFF0020FFF7D0FF0020FFF7D3FF084A137843F00103137002F65E32137843F00103137008BD00BF004F00400B4F0040A343004030
:4028000008B5054B1B7823B9FFF7C0FF0122024B1A70FFF795FF08BD9184FF1F054A137843F0010313701032137843F001031370704700BFA243004001BE704710B50446B0
:4028400005E0084B186800F067F9A4F50044B4F5004FF6D8034B586800FB04F000F05CF910BD00BFB882FF1F38B504460D46072902D90020FFF7E0FF1F2C02D90020FFF7C1
:40288000DBFF04F01F0000F1604000F564406D01EDB2057038BD00BF7222084B1A702022A3F580731A700622603B1A70472210331A7000224F331A70704700BF8B650040AC
:4028C00010B500F031F904460A4A137843F020031370A2F58072137843F010031370013A137843F01003137000F032F8204600F01FF910BD9B65004008B5054B1B7823B97A
:40290000FFF7CAFF0122024B1A70FFF7D9FF08BD9284FF1F034B1B7813F0040FFAD1024B187070476A6400404A64004038B5074B1B782BB938BDFFF7EDFF0134A4B201E0D4
:4029400005460024285D0028F5D138BD9284FF1F054A137843F0020313701032137843F002031370704700BFA2430040024B1878C0F3C000704700BF01510040024B18785F
:40298000C0F30010704700BF0151004018484FF47F0102680A43026016486FF07F4102680A400260704714484FF080510160704772B611484FF000610160FFF78DFC0F48EA
:4029C000006800F0D5F858B10C4800684FF080730B4A0C490FB40FB46FF00600004700BF6FF0060062B6004762B600DF08B0704720ED00E01CED00E004ED00E0AC84FF1F01
:402A00002D2A0000E9290000EFF30880054908600548006880F3088870470248006880F308887047C882FF1FAC82FF1F411C8900154A11440968154A136899421AD0F0B430
:402A400044464D4656465F46F0B400B5104C9B002344EFF308851D60116089002144096881F3088802BC8E46F0BCA046A946B246BB46F0BC002806DB00B500F06DF802BCF8
:402A80008E46FFF7D3BF7047744700008C84FF1FB082FF1FF0B444464D4656465F46F0B400B5EFF3038308B48000174901440968164A0244EFF3088313608847144880473D
:402AC00004BC4FF08070024382F3038801BC8646F0BCA046A946B246BB46F0BC704780000A4901440A6882F3088804BC4FF08070024382F3038808BC9E46F0BCA046A94650
:402B0000B246BB46F0BC70474C470000C484FF1F392B0000000000000230800803D000BF01380046FCD17047EFF3108072B6704780F31088704700BF08B572B6014B18680A
:402B4000FFF7CDFF6482FF1F08B5024B1868FFF7A1FF08BD6482FF1F08B562B6FFF7F4FF72B600F041F8014B186808BDAC84FF1F00280BDA20F000400130054B53F820006F
:402B8000044B1B68181A18BF0120704701207047744700008C84FF1F054B53F82020054B53F820309A4201D10120704700207047D081FF1F0847000008B5FFF7CBFB084BF4
:402BC00053F8203043B10022054B43F8202040F00040044B186008BD024B186008BD00BF4484FF1FAC84FF1F38B5364B1C680022354B1A60354A52F82430013342F82430F3
:402C0000334B53F824502046FFF7C6FF012801D0A54204D103222F4B43F8242003E002222C4B43F824202C4B53F824102B4A136823EA010313602A4B53F82440214B1C60EF
:402C4000B5F1FF3F0FD0234B53F82530032B07D10222204B43F825200022224B43F825202846FFF7DDFBFFF7B9FBB0F1FF3F0BD1B4F1FF3F03D00022164B43F8242044F0D2
:402C80000044194B1C6038BD184B53F82020134B1B689A4208D800220E4B43F8242044F00044114B1C6038BD00210A4A42F82010094A52F820201343084A1360FFF77CFFE9
:402CC00038BD00BF6482FF1F9C84FF1FD081FF1F9481FF1F7C82FF1F1C4700008884FF1F6882FF1F6C84FF1FAC84FF1F3847000081F0004102E000BF83F0004330B54FEA89
:402D000041044FEA430594EA050F08BF90EA020F1FBF54EA000C55EA020C7FEA645C7FEA655C00F0E2804FEA5454D4EB5555B8BF6D420CDD2C4480EA020281EA030382EABB
:402D4000000083EA010180EA020281EA0303362D88BF30BD11F0004F4FEA01314FF4801C4CEA113102D0404261EB410113F0004F4FEA03334CEA133302D0524263EB430343
:402D800094EA050F00F0A780A4F10104D5F1200E0DDB02FA0EFC22FA05F2801841F1000103FA0EF2801843FA05F359410EE0A5F120050EF1200E012A03FA0EFC28BF4CF081
:402DC000020C43FA05F3C01851EBE37101F0004507D54FF0000EDCF1000C7EEB00006EEB0101B1F5801F1BD3B1F5001F0CD349085FEA30004FEA3C0C04F101044FEA445241
:402E000012F5800F80F09A80BCF1004F08BF5FEA500C50F1000041EB045141EA050130BD5FEA4C0C404141EB010111F4801FA4F10104E9D191F0000F04BF01460020B1FA7D
:402E400081F308BF2033A3F10B03B3F120020CDA0C3208DD02F1140CC2F10C0201FA0CF021FA02F10CE002F11402D8BFC2F1200C01FA02F120FA0CFCDCBF41EA0C0190405C
:402E8000E41AA2BF01EB0451294330BD6FEA04041F3C1CDA0C340EDC04F11404C4F1200220FA04F001FA02F340EA030021FA04F345EA030130BDC4F10C04C4F1200220FA46
:402EC00002F001FA04F340EA0300294630BD21FA04F0294630BD94F0000F83F4801306BF81F480110134013D4EE77FEA645C18BF7FEA655C29D094EA050F08BF90EA020FE3
:402F000005D054EA000C04BF1946104630BD91EA030F1EBF0021002030BD5FEA545C05D14000494128BF41F0004130BD14F580043CBF01F5801130BD01F0004545F0FE41F0
:402F400041F470014FF0000030BD7FEA645C1ABF194610467FEA655C1CBF0B46024650EA013406BF52EA033591EA030F41F4002130BD00BF90F0000F04BF0021704730B5E4
:402F80004FF4806404F132044FF000054FF0000150E700BF90F0000F04BF0021704730B54FF4806404F1320410F0004548BF40424FF000013EE700BF42004FEAE2014FEA5B
:402FC00031014FEA02701FBF12F07F4393F07F4F81F06051704792F0000F14BF93F07F4F704730B54FF4607401F0004521F0004120E700BF50EA010208BF704730B54FF093
:4030000000050AE050EA010208BF704730B511F0004502D5404261EB41014FF4806404F132045FEA915C3FF4DCAE4FF003025FEADC0C18BF03325FEADC0C18BF033202EBE4
:40304000DC02C2F1200300FA03FC20FA02F001FA03FE40EA0E0021FA02F11444C1E600BF70B54FF0FF0C4CF4E06C1CEA11541DBF1CEA135594EA0C0F95EA0C0F00F0DEF8EE
:403080002C4481EA030621EA4C5123EA4C5350EA013518BF52EA033541F4801143F4801338D0A0FB02CE4FF00005E1FB02E506F00042E0FB03E54FF00006E1FB03569CF012
:4030C000000F18BF4EF0010EA4F1FF04B6F5007F64F5407404D25FEA4E0E6D4146EB060642EAC62141EA55514FEAC52040EA5E504FEACE2EB4F1FD0C88BFBCF5E06F1ED86E
:40310000BEF1004F08BF5FEA500E50F1000041EB045170BD06F0004646EA010140EA020081EA0301B4EB5C04C2BFD4EB0C0541EA045170BD41F480114FF0000E013C00F3EB
:40314000AB8014F1360FDEBF002001F0004170BDC4F10004203C35DA0C341BDC04F11404C4F1200500FA05F320FA04F001FA05F240EA020001F0004221F0004110EBD3709B
:4031800021FA04F642EB06015EEA430E08BF20EAD37070BDC4F10C04C4F1200500FA04F320FA05F001FA04F240EA020001F0004110EBD37041F100015EEA430E08BF20EA23
:4031C000D37070BDC4F1200500FA05F24EEA020E20FA04F301FA05F243EA020321FA04F001F0004121FA04F220EA020000EBD3705EEA430E08BF20EAD37070BD94F0000F1E
:403200000FD101F00046400041EB010111F4801F08BF013CF7D041EA060195F0000F18BF704703F00046520043EB030313F4801F08BF013DF7D043EA0603704794EA0C0F8F
:403240000CEA135518BF95EA0C0F0CD050EA410618BF52EA4306D1D181EA030101F000414FF0000070BD50EA410606BF1046194652EA430619D094EA0C0F02D150EA0136D1
:4032800013D195EA0C0F05D152EA03361CBF104619460AD181EA030101F0004141F0FE4141F470014FF0000070BD41F0FE4141F4780170BD70B54FF0FF0C4CF4E06C1CEA6B
:4032C00011541DBF1CEA135594EA0C0F95EA0C0F00F0A7F8A4EB050481EA030E52EA03354FEA013100F088804FEA03334FF0805545EA131343EA12634FEA022245EA111546
:4033000045EA10654FEA00260EF000419D4208BF964244F1FD0404F5407402D25B084FEA3202B61A65EB03055B084FEA32024FF480104FF4002CB6EB020E75EB030E22BF09
:40334000B61A754640EA0C005B084FEA3202B6EB020E75EB030E22BFB61A754640EA5C005B084FEA3202B6EB020E75EB030E22BFB61A754640EA9C005B084FEA3202B6EB13
:40338000020E75EB030E22BFB61A754640EADC0055EA060E18D04FEA051545EA16754FEA06164FEAC30343EA52734FEAC2025FEA1C1CC0D111F4801F0BD141EA00014FF092
:4033C00000004FF0004CB6E711F4801F04BF01430020B4F1FD0C88BFBCF5E06F3FF6AFAEB5EB030C04BFB6EB020C5FEA500C50F1000041EB045170BD0EF0004E4EEA1131D8
:4034000014EB5C04C2BFD4EB0C0541EA045170BD41F480114FF0000E013C90E645EA060E8DE60CEA135594EA0C0F08BF95EA0C0F3FF43BAF94EA0C0F0AD150EA01347FF4E8
:4034400034AF95EA0C0F7FF425AF104619462CE795EA0C0F06D152EA03353FF4FDAE1046194622E750EA410618BF52EA43067FF4C5AE50EA41047FF40DAF52EA43057FF4D7
:40348000EBAE12E74A0011D212F5001211D20DD56FF47873B3EB62520ED44FEAC12343F0004343EA505323FA02F070474FF00000704750EA013002D14FF0FF3070474FF02C
:4034C00000007047014B1868704700BF2C83FF1F0E4B70B51E460E4C0025E41AA410A54204D056F8253098470135F8E701F09CF9084B094C1E46E41AA4100025A54204D07D
:4035000056F8253098470135F8E770BD3448000034480000344800003C48000010B5431E0A44914204D011F8014B03F8014FF8E710BD03460244934202D003F8011BFAE73A
:40354000704700000EB400B54FF402719CB0ADF814106FF00041049107914FF6FF711DAB02900690084853F8042BADF81610006802A9019300F064F8029B00221A701CB043
:403580005DF804EB03B070472C83FF1F2DE9F0478E6882469E420C46914698463ED88A8912F4906F3AD02568096902236F1A656905EB450595FBF3F57B1C43449D4238BF45
:4035C0001D4653050FD5294600F040FB064698B13A462169FFF7A2FFA38923F4906343F08003A38113E02A4600F08EFB064670B92169504600F0DEFA0C23CAF80030A389C6
:403600004FF0FF3043F04003A381BDE8F08726613E44266046466561ED1BA560464528BF464649463246206800F0A8FAA36800209B1BA36023681E442660BDE8F0870000E6
:403640002DE9F04F9DB003938B8980461C060D4616460DD50B695BB9402100F0F7FA2860286118B90C23C8F80030CDE040236B610023099320238DF82930DFF89CB1302387
:403680008DF82A3037463C4614F8013B1BB9B7EB060910D003E0252BF9D02746F3E74B46324629464046FFF771FF013000F0A780099B4B4409933B78002B00F0A0800023B0
:4036C0004FF0FF3204930793059206938DF853301A930126052221784E4800F041FA671C049B38B14B4A3C46801A06FA00F018430490EFE7D90644BF20228DF853201A07EE
:4037000044BF2B228DF8532022782A2A03D0079A00210A200BE0039A111D12680391002A10DA524243F00200079204900BE027463B780134303B092B03D800FB02320121BB
:40374000F5E701B107923B782E2B1ED17B782A2B0AD1039B02371A1D1B680392002BB8BF4FF0FF33059310E0002319460593781C0A2407463A780130303A092A03D804FBC0
:4037800001210123F5E703B1059103223978224800F0E6F940B14023CBEB000003FA00F0049B013718430490397806221B487E1C8DF8281000F0D4F988B1194B33B9039B5A
:4037C000073323F007030833039314E003AB00932A46144B04A94046AFF3008007E003AB00932A460F4B04A9404600F093F8B0F1FF3F824603D0099B5344099342E7AB89FA
:403800005B0601D4099801E04FF0FF301DB0BDE8F08F00BFF2470000F8470000FC470000000000008D3500002DE9F04791461F460A698B6806469342B8BF1346C9F8003064
:4038400091F843200C46DDF8208012B10133C9F800302368990642BFD9F800300233C9F80030256815F0060510D104F1190A07E00123524639463046C04701301AD00135D5
:40388000E368D9F800209B1A9D42F1DB94F843302268003318BF012392060FD5E118302081F843005A1C94F845102244023382F8431003E04FF0FF30BDE8F08704F14302CE
:4038C00039463046C0470130F4D02268D9F80050E36802F00602042A08BF5D1B2269A3680CBF25EAE57500259342C4BF9B1AED184FF000091A344D4509D00123224639466D
:403900003046C0470130D5D009F10109F3E70020BDE8F0872DE9F04317460A7E85B06E2A984606460C460C9B01F1430E00F0AE8011D8632A22D009D8002A00F0BB80582A7B
:4039400040F0CA8081F84520834955E0642A1ED0692A1CD0C0E0732A00F0B08009D86F2A2ED0702A40F0B8800A6842F020020A603EE0752A24D0782A3AD0ADE01A6801F18E
:403980004205111D1960136884F84230A8E021681A6811F0800F02D0111D196008E011F0400F02F10401196002D0B2F9003000E01368002B3CDA2D225B4284F8432037E040
:4039C00021681A6811F0800F02D0111D196007E011F0400F02F10401196001D0138800E01368227E5C496F2A14BF0A2208221BE078225A4984F845202268186812F0800F89
:403A000000F104051D6003D1550601D5038800E00368D00744BF42F0200222601BB9226822F0200222601022002084F8430001E049490A226568002DA56008DB206820F046
:403A4000040020602BB9002D7DD175460CE0002B79D07546B3FBF2F002FB1033CB5C05F8013D03460028F5D1082A0BD12368DA0708D5236962689A42DEBF302305F8013C71
:403A800005F1FF35C5EB0E0323612EE008681A6810F0800F496903D0101D1860136808E010F0400F02F104001860136801D0198000E0196000232361754616E01A68111D77
:403AC0001960156800216268284600F049F808B1401B6060636804E004F1420584F8422001232361002384F84330CDF800803B4603AA21463046FFF797FE013002D14FF0D1
:403B0000FF3026E023692A4639463046C0470130F5D023689B0710D5002504F1190907E001234A4639463046C0470130E7D00135E368039A9B1A9D42F2DBE068039B984256
:403B4000B8BF184605E00B7804F1420584F842308AE705B0BDE8F083034800001448000010B5C9B202449042034605D01C7801308C42F8D1184610BD002010BD884210B580
:403B800001EB020301D8421E0BE09842FBD28118D21AD34204D013F8014D01F8014DF8E710BD994204D011F8014B02F8014FF8E710BD000038B50546002944D051F8043C97
:403BC0000C1F002BB8BFE41800F0D4F81E4A1368114613B96360146030E0A3420DD92268A018834201BF18685B681218226063600C6023E0A24203D813465A68002AF9D172
:403C000018681918A1420BD12168014458188242196013D110685268014419605A600DE002D90C232B6009E021686018824201BF106852680918216062605C602846BDE8B6
:403C4000384000F098B838BD9884FF1F70B5CD1C25F0030508350C2D38BF0C25002D064601DBA94202D90C23336046E000F082F8234B1C681A462146A1B10B685B1B0ED451
:403C80000B2B03D90B60CC18CD501EE08C420BBF63684B681360636018BF0C4615E00C464968E9E7174C23681BB9304600F052F820602946304600F04DF8431C18D0C41C18
:403CC00024F00304A0420DD12560304600F053F804F10B00231D20F00700C31A0ED05A42E25070BD211A304600F034F80130EBD10C233360304600F03EF8002070BD00BF82
:403D00009884FF1F9484FF1FF8B5074615460E4621B91146BDE8F840FFF798BF1AB9FFF749FF2846F8BD00F027F885420ED929463846FFF78BFF044650B131462A46FFF789
:403D4000EDFB31463846FFF735FF01E03046F8BD2046F8BD38B5064C0023054608462360FDF790FE431C02D1236803B12B6038BDECA6FF1F7047704751F8040C0028BEBF08
:403D8000091851F8043CC01804387047000000000FB103053C3CB203053C3CB306053C3C053C3CB40103C003280804C101C0C2020D00C3028D2AC4028DEEC5011A3601C0D3
:403DC000E0100422070A2E30252A28262E3A00010313E10F16060D2D26232727252D3B000104133A0105290000000000003E5B4F5B3E3E6B4F6B3E1C3E7C3E1C183C7E3CD7
:403E0000181C577D571C1C5E7F5E1C00183C1800FFE7C3E7FF0018241800FFE7DBE7FF30483A060E2629792926407F050507407F05253F5A3CE73C5A7F3E1C1C08081C1C79
:403E40003E7F14227F22145F5F005F5F06097F017F006689956A606060606094A2FFA29408047E040810207E201008082A1C08081C2A08081E101010100C1E0C1E0C303881
:403E80003E3830060E3E0E06000000000000005F00000007000700147F147F14242A7F2A12231308646236495620500008070300001C2241000041221C002A1C7F1C2A08DA
:403EC000083E080800807030000808080808000060600020100804023E5149453E00427F400072494949462141494D331814127F1027454545393C4A494931412111090744
:403F00003649494936464949291E0000140000004034000000081422411414141414004122140802015909063E415D594E7C1211127C7F494949363E414141227F41414121
:403F40003E7F494949417F090909013E414151737F0808087F00417F41002040413F017F081422417F404040407F021C027F7F0408107F3E4141413E7F090909063E4151ED
:403F8000215E7F09192946264949493203017F01033F4040403F1F2040201F3F4038403F631408146303047804036159494D43007F4141410204081020004141417F0402AF
:403FC0000102044040404040000307080020545478407F284444383844444428384444287F385454541800087E090218A4A49C787F0804047800447D40002040403D007F39
:404000001028440000417F40007C047804787C080404783844444438FC1824241818242418FC7C08040408485454542404043F44243C4040207C1C2040201C3C4030403C85
:4040400044281028444C9090907C4464544C4400083641000000770000004136080002010204023C2623263C1EA1A161123A4040207A385454555921555579412254547871
:4040800042215554784020545579400C1E5272123955555559395454545939555454580000457C410002457D420001457C407D1211127DF0282528F07C545545002054544D
:4040C0007C547C0A097F4932494949323A4444443A324A4848303A4141217A3A42402078009DA0A07D3D4242423D3D4040403D3C24FF2424487E4943662B2FFC2F2BFF0948
:4041000029F620C0887E090320545479410000447D413048484A32384040227A007A0A0A727D0D19317D2629292F28262929292630484D4020380808080808080808382F6F
:4041400010C8ACBA2F102834FA00007B000008142A142222142A14085500550055AA55AA55AAFF55FF55FF000000FF00101010FF00141414FF001010FF00FF1010F010F014
:40418000141414FC001414F700FF0000FF00FF1414F404FC141417101F10101F101F1414141F00101010F0000000001F101010101F10101010F010000000FF10101010102B
:4041C00010101010FF10000000FF140000FF00FF00001F10170000FC04F414141710171414F404F40000FF00F714141414141414F700F7141414171410101F101F1414142A
:40420000F4141010F010F000001F101F0000001F14000000FC140000F010F01010FF10FF141414FF141010101F00000000F010FFFFFFFFFFF0F0F0F0F0FFFFFF0000000071
:4042400000FFFF0F0F0F0F0F3844443844FC4A4A4A347E02020606027E027E0263554941633844443C04407E201E2006027E020299A5E7A5991C2A492A1C4C7201724C30EB
:404280004A4D4D303048784830BC625A463D3E494949007E0101017E2A2A2A2A2A44445F444440514A444040444A51400000FF0103E080FF000008086B6B08361236243648
:4042C000060F090F06000018180000001010003040FF0101001F01011E00191D1712003C3C3C3C000000000054465400427566666572206F766572666C6F77000A00000056
:4043000055415254207374617274656400000000203A20002020204541412041737369676E6D656E74203220200A0A00202020456C656374726F6E696320436C6F636B2016
:40434000200000007D0C0000010000007D0C00000200000002000000C90A000032000000C90C0000FA0000000200000003000000090F00000000000004000000090F0000F9
:404380000000000005000000090F00000000000003000000FC4300000100000004000000D84300000300000005000000B44300000300000002000400000000007D110000E8
:4043C00004000500000000007D1100000100040000000000C90D000002000400000000007D1100000300050000000000000000000100030000000000C90D000001000400D0
:4044000000000000550E000000000000090F0000000000000000000098440000020000000100000068440000040000000200000038440000040000000100000000000000EF
:404440001515000002000200000000000915000003000200000000009914000004000200000000008D14000001000200000000000D1400000200010000000000011400005B
:4044800003000100000000009113000004000100000000008513000001000100000000001513000005000000000000003910000025303264000000002563000000000400C8
:4044C0000000FFFF0A3C0000000004000000FFFF4B3C000000000000C516000000000000000000000000000000000000000000000000000000000000000000000000000014
:40450000000000000000000000000000000000000000000000000000000000000000000000000000B9170000000000000100000000000000010000004C4500000000000018
:4045400000000000000000000000000003000000004F00400C00205100401000405100403000F05100401000000001400010001401408004001901408001001B01400001E8
:4045800000400140000A004C014000020050014020000000605200406C040048060080180140740400488000801A0140F404004880000000FF0001010202020203030303B7
:4045C0000303030304040404040404040404040404040404050505050505050505050505050505050505050505050505050505050505050506060606060606060606060687
:4046000006060606060606060606060606060606060606060606060606060606060606060606060606060606060606060606060606060606070707070707070707070707EE
:40464000070707070707070707070707070707070707070707070707070707070707070707070707070707070707070707070707070707070707070707070707070707077A
:404680000707070707070707070707070707070707070707070707070707070707070707070707070707070707070707070707070707070701000000BC460000000000008B
:4046C00003000000000000000000000065090000FFFFFFFF0000000000000000000000000000000000000000701101000100000001000000000000000000000000000000C9
:4047000001000000000000000100000001000000010000000100000001000000800000000200000020000000100000000800000001000000020000000100000002000000B3
:404740002000000010000000080000009D090000110A00008D0D0000610D0000B90D0000492B0000492B0000492B0000492B0000492B00000000000000000000000000002E
:40478000000000000100000000000000616C726D5F316D730000000065765F6F6E4461746100000065765F627574746F6E00000074736B5F696E69740000000074736B5F5F
:4047C0006261636B67726F756E64000074736B5F696E70757400000074736B5F636F6E74726F6C0074736B5F73797374656D00004300232D302B2000686C4C00656667450B
:4048000046470030313233343536373839414243444546003031323334353637383961626364656600000000F8B500BFF8BC08BC9E4670474D000000011B0000F8B500BF93
:40484000F8BC08BC9E4670472900000060480000C880FF1F68020000C0230000000000000000000090430000030000006C430000030003001444000003000000084400006F
:4048800001000000000000000000000000000000000000000000000000000000000000000000000000000000000000000000000000000000000000000000000000000000F7
:4048C0000000000000000000000000000000000024450000000004000000FFFF0A3C0000000004000000FFFF4B3C00000000000000000000FC44000000000000000000003E
:40490000000000000000000000000000000000000000000000000000D4440000F0A6FF1F8C47000000000000FFFFFFFFFFFFFFFFFFFFFFFFFFFFFFFFFFFFFFFFFFFFFFFFF0
:4049400001000000020000000300000004000000FFFFFFFF00000000010000000500000004000000030000000100000001000000010000000100000001000000FFFFFFFF23
:40498000FFFFFFFFFFFFFFFFFFFFFFFFFFFFFFFFFFFFFFFFFFFFFFFFFFFFFFFFFFFFFFFFFFFFFFFFFFFFFFFFFFFFFFFFFFFFFFFFFFFFFFFFFFFFFFFFFFFFFFFFFFFFFFFF37
:4049C000FFFFFFFFFFFFFFFFFFFFFFFFFFFFFFFFFFFFFFFFFFFFFFFFFFFFFFFFFFFFFFFFFFFFFFFFFFFFFFFFFFFFFFFFFFFFFFFFFFFFFFFFFFFFFFFFFFFFFFFFFFFFFFFFF7
:404A0000FFFFFFFFFFFFFFFFFFFFFFFFFFFFFFFFFFFFFFFF030000000300000003000000030000000300000098470000A4470000B0470000BC470000CC470000D847000085
:404A4000E4470000ECA6FF1F00000000C4A4FF1F0000E02EC05D00001800000000366E010000000000000000000000000000000000000000000000000000000000000000ED
:404A800000000000F04700000000000000000000000000000000000000000000000000000000000000000000000000000000000000000000000000000000000000000000BF
:404AC00000000000CC82FF1F00000000000000000000000000000000000000000000000000000000000000000000000000000000000000000000000000000000000000004A
:404B00000000000000000000000000000000000000000000000000000000000000000000000000000000000000000000000000000000000000000000000000000000000075
:404B40000000000000000000000000000000000000000000000000000000000000000000000000000000000000000000000000000000000000000000000000000000000035
:404B800000000000000000000000000000000000000000000000000000000000000000000000000000000000000000000000000000000000000000000000000000000000F5
:404BC00000000000000000000000000000000000000000000000000000000000000000000000000000000000000000000000000000000000000000000000000000000000B5
:020000040003F7
:0200000480007A
:40000000024F0040026400400265004001010140020701404A0801403F090140660A0140330B0140010D0140010F0140011701400E18014045190140081A0140431B014008
:400040000440014004410140044201400A4301400244014001450140014601400347014001480140014C01400B4D0140045001400151014001200A1B8A0F8B38890F8B722F
:40008000E601E440E6080106032804040602091C0A011008152A17141A0124062501280629012C022D082E042F32312032013406351E3608370139A03E443F415440580448
:4000C00059045B045C015F01814D82808330848D8508873488028A0D8B028C428E08900D928094409554972B9C119E22A08DA48DA862AA14AC8DAD64AF1BB20FB303B48019
:40010000B53CB670B740B802BA88BB20BE11BF40D409D804D904DB04DF0100080180024003080404060409080A500B010E8810A012081380155419801A041B091C041D10D4
:400140001F84228023142510274229802C102D802E20320836083B153D203F01420C59055A105B406280665887018E208F80955497189C029D109F02A240A310A601AF100B
:40018000B402B708C06FC25DC4EFCA78CC42CEA7D60FD878E440E808020804E008E00C400E201013120C1413160418201AC0208022202501261528032A142C0A2E14300F74
:4001C000330134E036103A023E403F044012410345EE46B0470C481B49FF4AFF4BFF4EF04F44500C5401580459045A045B045C015D115F0166C06A406B028009821083081E
:400200008620881489408B038C109203951C972399219B0E9C709E0C9F1CA45CA602A86CAA11AD21AF16B01FB160B31AB50FB660B880B902BB28BE40C001C740C9FFCA07EF
:40024000CBFFCC40CD20CEF0CF05D008D418D804D904DA04DB04DC11DD11DF01E040E1A8E240E3200154034004200621074009040A440D400E800F02102A128013201718C7
:4002800019401A441B111D801E802204250C275829082E4037583E22416845804909501854205520562359415A085B205E02640267088D108E809F02C0FFC29EC46FCA120C
:4002C000CC70CEA0D01ED68FD8309F028302E820060708040E0712061406180724072C0230063401382058045C015F010188028003080440051007140A400B120D200FA04A
:4003000010281101120214101540180419011B081E081F0221C0228B231129802A023028324139893B104004418049844A084B02510C52506304682C69016AC06B807080FD
:4003400072027A017B02930495549640970199909C029D059E549F80A310A4A4A508A60DB010C0EFC27DC4AFCA09CC0FCE0FD00CD20CD804E820240128012C0136013A0216
:4003800058045C015F010440050107280C100E040FA0100211141540171619011B401C401D801E241F022501262427112C842E042F023420368437013D023E283F80441487
:4003C00045A047014E804F8056045E206C026D1474807628772A8002812182208C208D40944095549B049C129E049F10A310A520A740AB08B508B602C0F0C270C4F7CAF0C1
:40040000CCF0CEF0D0F0D210D620EC0132408240CC10E68004200802C080C210530890209802D4201B08600884088C1090209802A708C610D840E6107220DC019E209E20F3
:400440008F01AE20E002B0029302128070047F018E8090089302A804C408DC01DE04E20200030C0310031C030003000080A4000040000000079A380084020000012100D815
:4004800056130964043880C00A0210980098000260980002849A0000840000008000040004FC000380E07F0F800000130800000A000011006501200000BEFD0C1FFFFFFF6C
:4004C0002200F008040000000000022404040404000000010000C00040011011C001001140014001000000000000000000000000000000003F0000040C08000004180000BE
:400500001F00202300002340033C400233040C800000004008100000022780181C3F2300011C80212C80101F0F40C03800002208000044103502040001C0000E12FFFFFFA4
:4005400062A0F0410C00000000000211040404041111000100000000000040020010301000101012000000000000000000000000000000001800000000000000800040BC9E
:40058000BC00B40000000000000B0B00000000000018180008000000000000000000000000000000000000000000000000000000000000000000000000000000000000007D
:4005C00000000000000000000000000000000000000000000000000000000000000000000000000000000000000000000000000000000000000000000000000000000000FB
:4006000000000000000000000000000000000000000000000000000000000000000000000000000000000000000000000000000000000000000000000000000000000000BA
:40064000000000000000000000000000000000000000000000000000000000000000000000000000000000000000000000000000000000000000000000000000000000007A
:40068000000000000000000000000000000000000000000000000000000000000000000000000000000000000000000000000000000000000000000000000000000000003A
:0200000490006A
:0400000000004005B7
:0200000490105A
:04000000BC90ACAF55
:0200000490303A
:02000000C53405
:0200000490402A
:4000000000000000000000000000000000000000000000000000000000000000000000000000000000000000000000000000000000000000000000000000000000000000C0
:400040000000000000000000000000000000000000000000000000000000000000000000000000000000000000000000000000000000000000000000000000000000000080
:400080000000000000000000000000000000000000000000000000000000000000000000000000000000000000000000000000000000000000000000000000000000000040
:4000C0000000000000000000000000000000000000000000000000000000000000000000000000000000000000000000000000000000000000000000000000000000000000
:0200000490501A
:0C00000000012E16106900012E32D59D63
:00000001FF